{
  "_format": "hh-sol-artifact-1",
  "contractName": "HowlingHustlersNFT",
  "sourceName": "contracts/HowlingHustlersNFT.sol",
  "abi": [
    {
      "inputs": [],
      "stateMutability": "nonpayable",
      "type": "constructor"
    },
    {
      "anonymous": false,
      "inputs": [
        {
          "indexed": true,
          "internalType": "address",
          "name": "owner",
          "type": "address"
        },
        {
          "indexed": true,
          "internalType": "address",
          "name": "approved",
          "type": "address"
        },
        {
          "indexed": true,
          "internalType": "uint256",
          "name": "tokenId",
          "type": "uint256"
        }
      ],
      "name": "Approval",
      "type": "event"
    },
    {
      "anonymous": false,
      "inputs": [
        {
          "indexed": true,
          "internalType": "address",
          "name": "owner",
          "type": "address"
        },
        {
          "indexed": true,
          "internalType": "address",
          "name": "operator",
          "type": "address"
        },
        {
          "indexed": false,
          "internalType": "bool",
          "name": "approved",
          "type": "bool"
        }
      ],
      "name": "ApprovalForAll",
      "type": "event"
    },
    {
      "anonymous": false,
      "inputs": [
        {
          "indexed": true,
          "internalType": "address",
          "name": "previousOwner",
          "type": "address"
        },
        {
          "indexed": true,
          "internalType": "address",
          "name": "newOwner",
          "type": "address"
        }
      ],
      "name": "OwnershipTransferred",
      "type": "event"
    },
    {
      "anonymous": false,
      "inputs": [
        {
          "indexed": true,
          "internalType": "address",
          "name": "from",
          "type": "address"
        },
        {
          "indexed": true,
          "internalType": "address",
          "name": "to",
          "type": "address"
        },
        {
          "indexed": true,
          "internalType": "uint256",
          "name": "tokenId",
          "type": "uint256"
        }
      ],
      "name": "Transfer",
      "type": "event"
    },
    {
      "inputs": [
        {
          "internalType": "address",
          "name": "to",
          "type": "address"
        },
        {
          "internalType": "uint256",
          "name": "tokenId",
          "type": "uint256"
        }
      ],
      "name": "approve",
      "outputs": [],
      "stateMutability": "nonpayable",
      "type": "function"
    },
    {
      "inputs": [
        {
          "internalType": "address",
          "name": "owner",
          "type": "address"
        }
      ],
      "name": "balanceOf",
      "outputs": [
        {
          "internalType": "uint256",
          "name": "",
          "type": "uint256"
        }
      ],
      "stateMutability": "view",
      "type": "function"
    },
    {
      "inputs": [
        {
          "internalType": "uint256",
          "name": "tokenId",
          "type": "uint256"
        }
      ],
      "name": "getApproved",
      "outputs": [
        {
          "internalType": "address",
          "name": "",
          "type": "address"
        }
      ],
      "stateMutability": "view",
      "type": "function"
    },
    {
      "inputs": [],
      "name": "hiddenMetadataUri",
      "outputs": [
        {
          "internalType": "string",
          "name": "",
          "type": "string"
        }
      ],
      "stateMutability": "view",
      "type": "function"
    },
    {
      "inputs": [
        {
          "internalType": "address",
          "name": "owner",
          "type": "address"
        },
        {
          "internalType": "address",
          "name": "operator",
          "type": "address"
        }
      ],
      "name": "isApprovedForAll",
      "outputs": [
        {
          "internalType": "bool",
          "name": "",
          "type": "bool"
        }
      ],
      "stateMutability": "view",
      "type": "function"
    },
    {
      "inputs": [],
      "name": "isRevealed",
      "outputs": [
        {
          "internalType": "bool",
          "name": "",
          "type": "bool"
        }
      ],
      "stateMutability": "view",
      "type": "function"
    },
    {
      "inputs": [],
      "name": "isSaleActive",
      "outputs": [
        {
          "internalType": "bool",
          "name": "",
          "type": "bool"
        }
      ],
      "stateMutability": "view",
      "type": "function"
    },
    {
      "inputs": [],
      "name": "maxMintAmountPerTx",
      "outputs": [
        {
          "internalType": "uint256",
          "name": "",
          "type": "uint256"
        }
      ],
      "stateMutability": "view",
      "type": "function"
    },
    {
      "inputs": [],
      "name": "maxSupply",
      "outputs": [
        {
          "internalType": "uint256",
          "name": "",
          "type": "uint256"
        }
      ],
      "stateMutability": "view",
      "type": "function"
    },
    {
      "inputs": [
        {
          "internalType": "uint8",
          "name": "_mintAmount",
          "type": "uint8"
        },
        {
          "internalType": "address",
          "name": "_receiver",
          "type": "address"
        }
      ],
      "name": "mintForAddress",
      "outputs": [],
      "stateMutability": "nonpayable",
      "type": "function"
    },
    {
      "inputs": [],
      "name": "name",
      "outputs": [
        {
          "internalType": "string",
          "name": "",
          "type": "string"
        }
      ],
      "stateMutability": "view",
      "type": "function"
    },
    {
      "inputs": [],
      "name": "owner",
      "outputs": [
        {
          "internalType": "address",
          "name": "",
          "type": "address"
        }
      ],
      "stateMutability": "view",
      "type": "function"
    },
    {
      "inputs": [
        {
          "internalType": "uint256",
          "name": "tokenId",
          "type": "uint256"
        }
      ],
      "name": "ownerOf",
      "outputs": [
        {
          "internalType": "address",
          "name": "",
          "type": "address"
        }
      ],
      "stateMutability": "view",
      "type": "function"
    },
    {
      "inputs": [],
      "name": "pubCost",
      "outputs": [
        {
          "internalType": "uint256",
          "name": "",
          "type": "uint256"
        }
      ],
      "stateMutability": "view",
      "type": "function"
    },
    {
      "inputs": [
        {
          "internalType": "uint256",
          "name": "_mintAmount",
          "type": "uint256"
        }
      ],
      "name": "publicMint",
      "outputs": [],
      "stateMutability": "payable",
      "type": "function"
    },
    {
      "inputs": [],
      "name": "renounceOwnership",
      "outputs": [],
      "stateMutability": "nonpayable",
      "type": "function"
    },
    {
      "inputs": [
        {
          "internalType": "address",
          "name": "from",
          "type": "address"
        },
        {
          "internalType": "address",
          "name": "to",
          "type": "address"
        },
        {
          "internalType": "uint256",
          "name": "tokenId",
          "type": "uint256"
        }
      ],
      "name": "safeTransferFrom",
      "outputs": [],
      "stateMutability": "nonpayable",
      "type": "function"
    },
    {
      "inputs": [
        {
          "internalType": "address",
          "name": "from",
          "type": "address"
        },
        {
          "internalType": "address",
          "name": "to",
          "type": "address"
        },
        {
          "internalType": "uint256",
          "name": "tokenId",
          "type": "uint256"
        },
        {
          "internalType": "bytes",
          "name": "data",
          "type": "bytes"
        }
      ],
      "name": "safeTransferFrom",
      "outputs": [],
      "stateMutability": "nonpayable",
      "type": "function"
    },
    {
      "inputs": [
        {
          "internalType": "address",
          "name": "operator",
          "type": "address"
        },
        {
          "internalType": "bool",
          "name": "approved",
          "type": "bool"
        }
      ],
      "name": "setApprovalForAll",
      "outputs": [],
      "stateMutability": "nonpayable",
      "type": "function"
    },
    {
      "inputs": [
        {
          "internalType": "string",
          "name": "_hiddenMetadaUri",
          "type": "string"
        }
      ],
      "name": "setHiddenMetadataUri",
      "outputs": [],
      "stateMutability": "nonpayable",
      "type": "function"
    },
    {
      "inputs": [
        {
          "internalType": "bool",
          "name": "_state",
          "type": "bool"
        }
      ],
      "name": "setIsRevealed",
      "outputs": [],
      "stateMutability": "nonpayable",
      "type": "function"
    },
    {
      "inputs": [
        {
          "internalType": "bool",
          "name": "_state",
          "type": "bool"
        }
      ],
      "name": "setIsSaleActive",
      "outputs": [],
      "stateMutability": "nonpayable",
      "type": "function"
    },
    {
      "inputs": [
        {
          "internalType": "uint256",
          "name": "_maxMintAmountPerTx",
          "type": "uint256"
        }
      ],
      "name": "setMaxMintAmountPerTx",
      "outputs": [],
      "stateMutability": "nonpayable",
      "type": "function"
    },
    {
      "inputs": [
        {
          "internalType": "uint256",
          "name": "_pubCost",
          "type": "uint256"
        }
      ],
      "name": "setPubCost",
      "outputs": [],
      "stateMutability": "nonpayable",
      "type": "function"
    },
    {
      "inputs": [
        {
          "internalType": "string",
          "name": "_uriPrefix",
          "type": "string"
        }
      ],
      "name": "setUriPrefix",
      "outputs": [],
      "stateMutability": "nonpayable",
      "type": "function"
    },
    {
      "inputs": [
        {
          "internalType": "string",
          "name": "_uriSuffix",
          "type": "string"
        }
      ],
      "name": "setUriSuffix",
      "outputs": [],
      "stateMutability": "nonpayable",
      "type": "function"
    },
    {
      "inputs": [
        {
          "internalType": "bytes4",
          "name": "interfaceId",
          "type": "bytes4"
        }
      ],
      "name": "supportsInterface",
      "outputs": [
        {
          "internalType": "bool",
          "name": "",
          "type": "bool"
        }
      ],
      "stateMutability": "view",
      "type": "function"
    },
    {
      "inputs": [],
      "name": "symbol",
      "outputs": [
        {
          "internalType": "string",
          "name": "",
          "type": "string"
        }
      ],
      "stateMutability": "view",
      "type": "function"
    },
    {
      "inputs": [
        {
          "internalType": "uint256",
          "name": "_tokenId",
          "type": "uint256"
        }
      ],
      "name": "tokenURI",
      "outputs": [
        {
          "internalType": "string",
          "name": "",
          "type": "string"
        }
      ],
      "stateMutability": "view",
      "type": "function"
    },
    {
      "inputs": [],
      "name": "totalSupply",
      "outputs": [
        {
          "internalType": "uint256",
          "name": "",
          "type": "uint256"
        }
      ],
      "stateMutability": "view",
      "type": "function"
    },
    {
      "inputs": [
        {
          "internalType": "address",
          "name": "from",
          "type": "address"
        },
        {
          "internalType": "address",
          "name": "to",
          "type": "address"
        },
        {
          "internalType": "uint256",
          "name": "tokenId",
          "type": "uint256"
        }
      ],
      "name": "transferFrom",
      "outputs": [],
      "stateMutability": "nonpayable",
      "type": "function"
    },
    {
      "inputs": [
        {
          "internalType": "address",
          "name": "newOwner",
          "type": "address"
        }
      ],
      "name": "transferOwnership",
      "outputs": [],
      "stateMutability": "nonpayable",
      "type": "function"
    },
    {
      "inputs": [],
      "name": "uriPrefix",
      "outputs": [
        {
          "internalType": "string",
          "name": "",
          "type": "string"
        }
      ],
      "stateMutability": "view",
      "type": "function"
    },
    {
      "inputs": [],
      "name": "uriSuffix",
      "outputs": [
        {
          "internalType": "string",
          "name": "",
          "type": "string"
        }
      ],
      "stateMutability": "view",
      "type": "function"
    },
    {
      "inputs": [
        {
          "internalType": "address",
          "name": "_owner",
          "type": "address"
        }
      ],
      "name": "walletOfOwner",
      "outputs": [
        {
          "internalType": "uint256[]",
          "name": "",
          "type": "uint256[]"
        }
      ],
      "stateMutability": "view",
      "type": "function"
    },
    {
      "inputs": [],
      "name": "withdraw",
      "outputs": [],
      "stateMutability": "nonpayable",
      "type": "function"
    },
    {
      "inputs": [],
      "name": "wlCost",
      "outputs": [
        {
          "internalType": "uint256",
          "name": "",
          "type": "uint256"
        }
      ],
      "stateMutability": "view",
      "type": "function"
    }
  ],
  "bytecode": "0x60806040526040518060400160405280600c81526020017f697066733a2f2f746573742f0000000000000000000000000000000000000000815250600890816200004a919062000621565b506040518060400160405280600581526020017f2e6a736f6e0000000000000000000000000000000000000000000000000000008152506009908162000091919062000621565b506801a055690d9db80000600b556802b5e3af16b1880000600c556103e8600d556005600e556000600f60006101000a81548160ff0219169083151502179055506000600f60016101000a81548160ff021916908315150217905550348015620000fa57600080fd5b506040518060400160405280601481526020017f486f776c696e6720487573746c657273204e46540000000000000000000000008152506040518060400160405280600281526020017f4848000000000000000000000000000000000000000000000000000000000000815250816000908162000178919062000621565b5080600190816200018a919062000621565b505050620001ad620001a1620001f960201b60201c565b6200020160201b60201c565b620001f36040518060400160405280601781526020017f697066733a2f2f746573742f68696464656e2e6a736f6e000000000000000000815250620002c760201b60201c565b6200078b565b600033905090565b6000600660009054906101000a900473ffffffffffffffffffffffffffffffffffffffff16905081600660006101000a81548173ffffffffffffffffffffffffffffffffffffffff021916908373ffffffffffffffffffffffffffffffffffffffff1602179055508173ffffffffffffffffffffffffffffffffffffffff168173ffffffffffffffffffffffffffffffffffffffff167f8be0079c531659141344cd1fd0a4f28419497f9722a3daafe3b4186f6b6457e060405160405180910390a35050565b620002d7620002ec60201b60201c565b80600a9081620002e8919062000621565b5050565b620002fc620001f960201b60201c565b73ffffffffffffffffffffffffffffffffffffffff16620003226200037d60201b60201c565b73ffffffffffffffffffffffffffffffffffffffff16146200037b576040517f08c379a0000000000000000000000000000000000000000000000000000000008152600401620003729062000769565b60405180910390fd5b565b6000600660009054906101000a900473ffffffffffffffffffffffffffffffffffffffff16905090565b600081519050919050565b7f4e487b7100000000000000000000000000000000000000000000000000000000600052604160045260246000fd5b7f4e487b7100000000000000000000000000000000000000000000000000000000600052602260045260246000fd5b600060028204905060018216806200042957607f821691505b6020821081036200043f576200043e620003e1565b5b50919050565b60008190508160005260206000209050919050565b60006020601f8301049050919050565b600082821b905092915050565b600060088302620004a97fffffffffffffffffffffffffffffffffffffffffffffffffffffffffffffffff826200046a565b620004b586836200046a565b95508019841693508086168417925050509392505050565b6000819050919050565b6000819050919050565b600062000502620004fc620004f684620004cd565b620004d7565b620004cd565b9050919050565b6000819050919050565b6200051e83620004e1565b620005366200052d8262000509565b84845462000477565b825550505050565b600090565b6200054d6200053e565b6200055a81848462000513565b505050565b5b8181101562000582576200057660008262000543565b60018101905062000560565b5050565b601f821115620005d1576200059b8162000445565b620005a6846200045a565b81016020851015620005b6578190505b620005ce620005c5856200045a565b8301826200055f565b50505b505050565b600082821c905092915050565b6000620005f660001984600802620005d6565b1980831691505092915050565b6000620006118383620005e3565b9150826002028217905092915050565b6200062c82620003a7565b67ffffffffffffffff811115620006485762000647620003b2565b5b62000654825462000410565b6200066182828562000586565b600060209050601f83116001811462000699576000841562000684578287015190505b62000690858262000603565b86555062000700565b601f198416620006a98662000445565b60005b82811015620006d357848901518255600182019150602085019450602081019050620006ac565b86831015620006f35784890151620006ef601f891682620005e3565b8355505b6001600288020188555050505b505050505050565b600082825260208201905092915050565b7f4f776e61626c653a2063616c6c6572206973206e6f7420746865206f776e6572600082015250565b60006200075160208362000708565b91506200075e8262000719565b602082019050919050565b60006020820190508181036000830152620007848162000742565b9050919050565b613dec806200079b6000396000f3fe60806040526004361061021a5760003560e01c806362b99ad411610123578063a22cb465116100ab578063d2d65ff51161006f578063d2d65ff51461079c578063d5abeb01146107c5578063d70a28d1146107f0578063e985e9c51461081b578063f2fde38b146108585761021a565b8063a22cb465146106b9578063a45ba8e7146106e2578063b071401b1461070d578063b88d4fde14610736578063c87b56dd1461075f5761021a565b80637ec4a659116100f25780637ec4a659146105e65780638da5cb5b1461060f57806390f6f7281461063a57806394354fd01461066357806395d89b411461068e5761021a565b806362b99ad41461052a5780636352211e1461055557806370a0823114610592578063715018a6146105cf5761021a565b80633255064a116101a657806349a5980a1161017557806349a5980a146104575780634fdd43cb1461048057806354214f69146104a95780635503a0e8146104d4578063564566a8146104ff5761021a565b80633255064a146103b15780633ccfd60b146103da57806342842e0e146103f1578063438b63001461041a5761021a565b806316ba10e0116101ed57806316ba10e0146102ed57806318160ddd1461031657806322515b771461034157806323b872dd1461036c5780632db11544146103955761021a565b806301ffc9a71461021f57806306fdde031461025c578063081812fc14610287578063095ea7b3146102c4575b600080fd5b34801561022b57600080fd5b506102466004803603810190610241919061260c565b610881565b6040516102539190612654565b60405180910390f35b34801561026857600080fd5b50610271610963565b60405161027e91906126ff565b60405180910390f35b34801561029357600080fd5b506102ae60048036038101906102a99190612757565b6109f5565b6040516102bb91906127c5565b60405180910390f35b3480156102d057600080fd5b506102eb60048036038101906102e6919061280c565b610a3b565b005b3480156102f957600080fd5b50610314600480360381019061030f9190612981565b610b52565b005b34801561032257600080fd5b5061032b610b6d565b60405161033891906129d9565b60405180910390f35b34801561034d57600080fd5b50610356610b7e565b60405161036391906129d9565b60405180910390f35b34801561037857600080fd5b50610393600480360381019061038e91906129f4565b610b84565b005b6103af60048036038101906103aa9190612757565b610be4565b005b3480156103bd57600080fd5b506103d860048036038101906103d39190612a80565b610d3c565b005b3480156103e657600080fd5b506103ef610e04565b005b3480156103fd57600080fd5b50610418600480360381019061041391906129f4565b610e8c565b005b34801561042657600080fd5b50610441600480360381019061043c9190612ac0565b610eac565b60405161044e9190612bab565b60405180910390f35b34801561046357600080fd5b5061047e60048036038101906104799190612bf9565b610fb6565b005b34801561048c57600080fd5b506104a760048036038101906104a29190612981565b610fdb565b005b3480156104b557600080fd5b506104be610ff6565b6040516104cb9190612654565b60405180910390f35b3480156104e057600080fd5b506104e9611009565b6040516104f691906126ff565b60405180910390f35b34801561050b57600080fd5b50610514611097565b6040516105219190612654565b60405180910390f35b34801561053657600080fd5b5061053f6110aa565b60405161054c91906126ff565b60405180910390f35b34801561056157600080fd5b5061057c60048036038101906105779190612757565b611138565b60405161058991906127c5565b60405180910390f35b34801561059e57600080fd5b506105b960048036038101906105b49190612ac0565b6111e9565b6040516105c691906129d9565b60405180910390f35b3480156105db57600080fd5b506105e46112a0565b005b3480156105f257600080fd5b5061060d60048036038101906106089190612981565b6112b4565b005b34801561061b57600080fd5b506106246112cf565b60405161063191906127c5565b60405180910390f35b34801561064657600080fd5b50610661600480360381019061065c9190612757565b6112f9565b005b34801561066f57600080fd5b5061067861130b565b60405161068591906129d9565b60405180910390f35b34801561069a57600080fd5b506106a3611311565b6040516106b091906126ff565b60405180910390f35b3480156106c557600080fd5b506106e060048036038101906106db9190612c26565b6113a3565b005b3480156106ee57600080fd5b506106f76113b9565b60405161070491906126ff565b60405180910390f35b34801561071957600080fd5b50610734600480360381019061072f9190612757565b611447565b005b34801561074257600080fd5b5061075d60048036038101906107589190612d07565b611459565b005b34801561076b57600080fd5b5061078660048036038101906107819190612757565b6114bb565b60405161079391906126ff565b60405180910390f35b3480156107a857600080fd5b506107c360048036038101906107be9190612bf9565b611613565b005b3480156107d157600080fd5b506107da611638565b6040516107e791906129d9565b60405180910390f35b3480156107fc57600080fd5b5061080561163e565b60405161081291906129d9565b60405180910390f35b34801561082757600080fd5b50610842600480360381019061083d9190612d8a565b611644565b60405161084f9190612654565b60405180910390f35b34801561086457600080fd5b5061087f600480360381019061087a9190612ac0565b6116d8565b005b60007f80ac58cd000000000000000000000000000000000000000000000000000000007bffffffffffffffffffffffffffffffffffffffffffffffffffffffff1916827bffffffffffffffffffffffffffffffffffffffffffffffffffffffff1916148061094c57507f5b5e139f000000000000000000000000000000000000000000000000000000007bffffffffffffffffffffffffffffffffffffffffffffffffffffffff1916827bffffffffffffffffffffffffffffffffffffffffffffffffffffffff1916145b8061095c575061095b8261175b565b5b9050919050565b60606000805461097290612df9565b80601f016020809104026020016040519081016040528092919081815260200182805461099e90612df9565b80156109eb5780601f106109c0576101008083540402835291602001916109eb565b820191906000526020600020905b8154815290600101906020018083116109ce57829003601f168201915b5050505050905090565b6000610a00826117c5565b6004600083815260200190815260200160002060009054906101000a900473ffffffffffffffffffffffffffffffffffffffff169050919050565b6000610a4682611138565b90508073ffffffffffffffffffffffffffffffffffffffff168373ffffffffffffffffffffffffffffffffffffffff1603610ab6576040517f08c379a0000000000000000000000000000000000000000000000000000000008152600401610aad90612e9c565b60405180910390fd5b8073ffffffffffffffffffffffffffffffffffffffff16610ad5611810565b73ffffffffffffffffffffffffffffffffffffffff161480610b045750610b0381610afe611810565b611644565b5b610b43576040517f08c379a0000000000000000000000000000000000000000000000000000000008152600401610b3a90612f2e565b60405180910390fd5b610b4d8383611818565b505050565b610b5a6118d1565b8060099081610b6991906130fa565b5050565b6000610b79600761194f565b905090565b600c5481565b610b95610b8f611810565b8261195d565b610bd4576040517f08c379a0000000000000000000000000000000000000000000000000000000008152600401610bcb9061323e565b60405180910390fd5b610bdf8383836119f2565b505050565b80600081118015610bf75750600e548111155b610c36576040517f08c379a0000000000000000000000000000000000000000000000000000000008152600401610c2d906132aa565b60405180910390fd5b600d5481610c44600761194f565b610c4e91906132f9565b1115610c8f576040517f08c379a0000000000000000000000000000000000000000000000000000000008152600401610c869061339f565b60405180910390fd5b600f60009054906101000a900460ff16610cde576040517f08c379a0000000000000000000000000000000000000000000000000000000008152600401610cd59061340b565b60405180910390fd5b81600c54610cec919061342b565b341015610d2e576040517f08c379a0000000000000000000000000000000000000000000000000000000008152600401610d25906134b9565b60405180910390fd5b610d383383611c58565b5050565b8160ff16600081118015610d525750600e548111155b610d91576040517f08c379a0000000000000000000000000000000000000000000000000000000008152600401610d88906132aa565b60405180910390fd5b600d5481610d9f600761194f565b610da991906132f9565b1115610dea576040517f08c379a0000000000000000000000000000000000000000000000000000000008152600401610de19061339f565b60405180910390fd5b610df26118d1565b610dff828460ff16611c58565b505050565b610e0c6118d1565b6000610e166112cf565b73ffffffffffffffffffffffffffffffffffffffff1647604051610e399061350a565b60006040518083038185875af1925050503d8060008114610e76576040519150601f19603f3d011682016040523d82523d6000602084013e610e7b565b606091505b5050905080610e8957600080fd5b50565b610ea783838360405180602001604052806000815250611459565b505050565b60606000610eb9836111e9565b905060008167ffffffffffffffff811115610ed757610ed6612856565b5b604051908082528060200260200182016040528015610f055781602001602082028036833780820191505090505b50905060006001905060005b8381108015610f225750600d548211155b15610faa576000610f3283611138565b90508673ffffffffffffffffffffffffffffffffffffffff168173ffffffffffffffffffffffffffffffffffffffff1603610f965782848381518110610f7b57610f7a61351f565b5b6020026020010181815250508180610f929061354e565b9250505b8280610fa19061354e565b93505050610f11565b82945050505050919050565b610fbe6118d1565b80600f60016101000a81548160ff02191690831515021790555050565b610fe36118d1565b80600a9081610ff291906130fa565b5050565b600f60019054906101000a900460ff1681565b6009805461101690612df9565b80601f016020809104026020016040519081016040528092919081815260200182805461104290612df9565b801561108f5780601f106110645761010080835404028352916020019161108f565b820191906000526020600020905b81548152906001019060200180831161107257829003601f168201915b505050505081565b600f60009054906101000a900460ff1681565b600880546110b790612df9565b80601f01602080910402602001604051908101604052809291908181526020018280546110e390612df9565b80156111305780601f1061110557610100808354040283529160200191611130565b820191906000526020600020905b81548152906001019060200180831161111357829003601f168201915b505050505081565b6000806002600084815260200190815260200160002060009054906101000a900473ffffffffffffffffffffffffffffffffffffffff169050600073ffffffffffffffffffffffffffffffffffffffff168173ffffffffffffffffffffffffffffffffffffffff16036111e0576040517f08c379a00000000000000000000000000000000000000000000000000000000081526004016111d7906135e2565b60405180910390fd5b80915050919050565b60008073ffffffffffffffffffffffffffffffffffffffff168273ffffffffffffffffffffffffffffffffffffffff1603611259576040517f08c379a000000000000000000000000000000000000000000000000000000000815260040161125090613674565b60405180910390fd5b600360008373ffffffffffffffffffffffffffffffffffffffff1673ffffffffffffffffffffffffffffffffffffffff168152602001908152602001600020549050919050565b6112a86118d1565b6112b26000611c98565b565b6112bc6118d1565b80600890816112cb91906130fa565b5050565b6000600660009054906101000a900473ffffffffffffffffffffffffffffffffffffffff16905090565b6113016118d1565b80600c8190555050565b600e5481565b60606001805461132090612df9565b80601f016020809104026020016040519081016040528092919081815260200182805461134c90612df9565b80156113995780601f1061136e57610100808354040283529160200191611399565b820191906000526020600020905b81548152906001019060200180831161137c57829003601f168201915b5050505050905090565b6113b56113ae611810565b8383611d5e565b5050565b600a80546113c690612df9565b80601f01602080910402602001604051908101604052809291908181526020018280546113f290612df9565b801561143f5780601f106114145761010080835404028352916020019161143f565b820191906000526020600020905b81548152906001019060200180831161142257829003601f168201915b505050505081565b61144f6118d1565b80600e8190555050565b61146a611464611810565b8361195d565b6114a9576040517f08c379a00000000000000000000000000000000000000000000000000000000081526004016114a09061323e565b60405180910390fd5b6114b584848484611eca565b50505050565b60606114c682611f26565b611505576040517f08c379a00000000000000000000000000000000000000000000000000000000081526004016114fc90613706565b60405180910390fd5b60001515600f60019054906101000a900460ff161515036115b257600a805461152d90612df9565b80601f016020809104026020016040519081016040528092919081815260200182805461155990612df9565b80156115a65780601f1061157b576101008083540402835291602001916115a6565b820191906000526020600020905b81548152906001019060200180831161158957829003601f168201915b5050505050905061160e565b60006115bc611f92565b905060008151116115dc576040518060200160405280600081525061160a565b806115e684612024565b60096040516020016115fa939291906137e5565b6040516020818303038152906040525b9150505b919050565b61161b6118d1565b80600f60006101000a81548160ff02191690831515021790555050565b600d5481565b600b5481565b6000600560008473ffffffffffffffffffffffffffffffffffffffff1673ffffffffffffffffffffffffffffffffffffffff16815260200190815260200160002060008373ffffffffffffffffffffffffffffffffffffffff1673ffffffffffffffffffffffffffffffffffffffff16815260200190815260200160002060009054906101000a900460ff16905092915050565b6116e06118d1565b600073ffffffffffffffffffffffffffffffffffffffff168173ffffffffffffffffffffffffffffffffffffffff160361174f576040517f08c379a000000000000000000000000000000000000000000000000000000000815260040161174690613888565b60405180910390fd5b61175881611c98565b50565b60007f01ffc9a7000000000000000000000000000000000000000000000000000000007bffffffffffffffffffffffffffffffffffffffffffffffffffffffff1916827bffffffffffffffffffffffffffffffffffffffffffffffffffffffff1916149050919050565b6117ce81611f26565b61180d576040517f08c379a0000000000000000000000000000000000000000000000000000000008152600401611804906135e2565b60405180910390fd5b50565b600033905090565b816004600083815260200190815260200160002060006101000a81548173ffffffffffffffffffffffffffffffffffffffff021916908373ffffffffffffffffffffffffffffffffffffffff160217905550808273ffffffffffffffffffffffffffffffffffffffff1661188b83611138565b73ffffffffffffffffffffffffffffffffffffffff167f8c5be1e5ebec7d5bd14f71427d1e84f3dd0314c0f7b2291e5b200ac8c7c3b92560405160405180910390a45050565b6118d9611810565b73ffffffffffffffffffffffffffffffffffffffff166118f76112cf565b73ffffffffffffffffffffffffffffffffffffffff161461194d576040517f08c379a0000000000000000000000000000000000000000000000000000000008152600401611944906138f4565b60405180910390fd5b565b600081600001549050919050565b60008061196983611138565b90508073ffffffffffffffffffffffffffffffffffffffff168473ffffffffffffffffffffffffffffffffffffffff1614806119ab57506119aa8185611644565b5b806119e957508373ffffffffffffffffffffffffffffffffffffffff166119d1846109f5565b73ffffffffffffffffffffffffffffffffffffffff16145b91505092915050565b8273ffffffffffffffffffffffffffffffffffffffff16611a1282611138565b73ffffffffffffffffffffffffffffffffffffffff1614611a68576040517f08c379a0000000000000000000000000000000000000000000000000000000008152600401611a5f90613986565b60405180910390fd5b600073ffffffffffffffffffffffffffffffffffffffff168273ffffffffffffffffffffffffffffffffffffffff1603611ad7576040517f08c379a0000000000000000000000000000000000000000000000000000000008152600401611ace90613a18565b60405180910390fd5b611ae2838383612184565b611aed600082611818565b6001600360008573ffffffffffffffffffffffffffffffffffffffff1673ffffffffffffffffffffffffffffffffffffffff1681526020019081526020016000206000828254611b3d9190613a38565b925050819055506001600360008473ffffffffffffffffffffffffffffffffffffffff1673ffffffffffffffffffffffffffffffffffffffff1681526020019081526020016000206000828254611b9491906132f9565b92505081905550816002600083815260200190815260200160002060006101000a81548173ffffffffffffffffffffffffffffffffffffffff021916908373ffffffffffffffffffffffffffffffffffffffff160217905550808273ffffffffffffffffffffffffffffffffffffffff168473ffffffffffffffffffffffffffffffffffffffff167fddf252ad1be2c89b69c2b068fc378daa952ba7f163c4a11628f55a4df523b3ef60405160405180910390a4611c53838383612189565b505050565b60005b81811015611c9357611c6d600761218e565b611c8083611c7b600761194f565b6121a4565b8080611c8b9061354e565b915050611c5b565b505050565b6000600660009054906101000a900473ffffffffffffffffffffffffffffffffffffffff16905081600660006101000a81548173ffffffffffffffffffffffffffffffffffffffff021916908373ffffffffffffffffffffffffffffffffffffffff1602179055508173ffffffffffffffffffffffffffffffffffffffff168173ffffffffffffffffffffffffffffffffffffffff167f8be0079c531659141344cd1fd0a4f28419497f9722a3daafe3b4186f6b6457e060405160405180910390a35050565b8173ffffffffffffffffffffffffffffffffffffffff168373ffffffffffffffffffffffffffffffffffffffff1603611dcc576040517f08c379a0000000000000000000000000000000000000000000000000000000008152600401611dc390613ab8565b60405180910390fd5b80600560008573ffffffffffffffffffffffffffffffffffffffff1673ffffffffffffffffffffffffffffffffffffffff16815260200190815260200160002060008473ffffffffffffffffffffffffffffffffffffffff1673ffffffffffffffffffffffffffffffffffffffff16815260200190815260200160002060006101000a81548160ff0219169083151502179055508173ffffffffffffffffffffffffffffffffffffffff168373ffffffffffffffffffffffffffffffffffffffff167f17307eab39ab6107e8899845ad3d59bd9653f200f220920489ca2b5937696c3183604051611ebd9190612654565b60405180910390a3505050565b611ed58484846119f2565b611ee1848484846121c2565b611f20576040517f08c379a0000000000000000000000000000000000000000000000000000000008152600401611f1790613b4a565b60405180910390fd5b50505050565b60008073ffffffffffffffffffffffffffffffffffffffff166002600084815260200190815260200160002060009054906101000a900473ffffffffffffffffffffffffffffffffffffffff1673ffffffffffffffffffffffffffffffffffffffff1614159050919050565b606060088054611fa190612df9565b80601f0160208091040260200160405190810160405280929190818152602001828054611fcd90612df9565b801561201a5780601f10611fef5761010080835404028352916020019161201a565b820191906000526020600020905b815481529060010190602001808311611ffd57829003601f168201915b5050505050905090565b60606000820361206b576040518060400160405280600181526020017f3000000000000000000000000000000000000000000000000000000000000000815250905061217f565b600082905060005b6000821461209d5780806120869061354e565b915050600a826120969190613b99565b9150612073565b60008167ffffffffffffffff8111156120b9576120b8612856565b5b6040519080825280601f01601f1916602001820160405280156120eb5781602001600182028036833780820191505090505b5090505b60008514612178576001826121049190613a38565b9150600a856121139190613bca565b603061211f91906132f9565b60f81b8183815181106121355761213461351f565b5b60200101907effffffffffffffffffffffffffffffffffffffffffffffffffffffffffffff1916908160001a905350600a856121719190613b99565b94506120ef565b8093505050505b919050565b505050565b505050565b6001816000016000828254019250508190555050565b6121be828260405180602001604052806000815250612349565b5050565b60006121e38473ffffffffffffffffffffffffffffffffffffffff166123a4565b1561233c578373ffffffffffffffffffffffffffffffffffffffff1663150b7a0261220c611810565b8786866040518563ffffffff1660e01b815260040161222e9493929190613c50565b6020604051808303816000875af192505050801561226a57506040513d601f19601f820116820180604052508101906122679190613cb1565b60015b6122ec573d806000811461229a576040519150601f19603f3d011682016040523d82523d6000602084013e61229f565b606091505b5060008151036122e4576040517f08c379a00000000000000000000000000000000000000000000000000000000081526004016122db90613b4a565b60405180910390fd5b805181602001fd5b63150b7a0260e01b7bffffffffffffffffffffffffffffffffffffffffffffffffffffffff1916817bffffffffffffffffffffffffffffffffffffffffffffffffffffffff191614915050612341565b600190505b949350505050565b61235383836123c7565b61236060008484846121c2565b61239f576040517f08c379a000000000000000000000000000000000000000000000000000000000815260040161239690613b4a565b60405180910390fd5b505050565b6000808273ffffffffffffffffffffffffffffffffffffffff163b119050919050565b600073ffffffffffffffffffffffffffffffffffffffff168273ffffffffffffffffffffffffffffffffffffffff1603612436576040517f08c379a000000000000000000000000000000000000000000000000000000000815260040161242d90613d2a565b60405180910390fd5b61243f81611f26565b1561247f576040517f08c379a000000000000000000000000000000000000000000000000000000000815260040161247690613d96565b60405180910390fd5b61248b60008383612184565b6001600360008473ffffffffffffffffffffffffffffffffffffffff1673ffffffffffffffffffffffffffffffffffffffff16815260200190815260200160002060008282546124db91906132f9565b92505081905550816002600083815260200190815260200160002060006101000a81548173ffffffffffffffffffffffffffffffffffffffff021916908373ffffffffffffffffffffffffffffffffffffffff160217905550808273ffffffffffffffffffffffffffffffffffffffff16600073ffffffffffffffffffffffffffffffffffffffff167fddf252ad1be2c89b69c2b068fc378daa952ba7f163c4a11628f55a4df523b3ef60405160405180910390a461259c60008383612189565b5050565b6000604051905090565b600080fd5b600080fd5b60007fffffffff0000000000000000000000000000000000000000000000000000000082169050919050565b6125e9816125b4565b81146125f457600080fd5b50565b600081359050612606816125e0565b92915050565b600060208284031215612622576126216125aa565b5b6000612630848285016125f7565b91505092915050565b60008115159050919050565b61264e81612639565b82525050565b60006020820190506126696000830184612645565b92915050565b600081519050919050565b600082825260208201905092915050565b60005b838110156126a957808201518184015260208101905061268e565b60008484015250505050565b6000601f19601f8301169050919050565b60006126d18261266f565b6126db818561267a565b93506126eb81856020860161268b565b6126f4816126b5565b840191505092915050565b6000602082019050818103600083015261271981846126c6565b905092915050565b6000819050919050565b61273481612721565b811461273f57600080fd5b50565b6000813590506127518161272b565b92915050565b60006020828403121561276d5761276c6125aa565b5b600061277b84828501612742565b91505092915050565b600073ffffffffffffffffffffffffffffffffffffffff82169050919050565b60006127af82612784565b9050919050565b6127bf816127a4565b82525050565b60006020820190506127da60008301846127b6565b92915050565b6127e9816127a4565b81146127f457600080fd5b50565b600081359050612806816127e0565b92915050565b60008060408385031215612823576128226125aa565b5b6000612831858286016127f7565b925050602061284285828601612742565b9150509250929050565b600080fd5b600080fd5b7f4e487b7100000000000000000000000000000000000000000000000000000000600052604160045260246000fd5b61288e826126b5565b810181811067ffffffffffffffff821117156128ad576128ac612856565b5b80604052505050565b60006128c06125a0565b90506128cc8282612885565b919050565b600067ffffffffffffffff8211156128ec576128eb612856565b5b6128f5826126b5565b9050602081019050919050565b82818337600083830152505050565b600061292461291f846128d1565b6128b6565b9050828152602081018484840111156129405761293f612851565b5b61294b848285612902565b509392505050565b600082601f8301126129685761296761284c565b5b8135612978848260208601612911565b91505092915050565b600060208284031215612997576129966125aa565b5b600082013567ffffffffffffffff8111156129b5576129b46125af565b5b6129c184828501612953565b91505092915050565b6129d381612721565b82525050565b60006020820190506129ee60008301846129ca565b92915050565b600080600060608486031215612a0d57612a0c6125aa565b5b6000612a1b868287016127f7565b9350506020612a2c868287016127f7565b9250506040612a3d86828701612742565b9150509250925092565b600060ff82169050919050565b612a5d81612a47565b8114612a6857600080fd5b50565b600081359050612a7a81612a54565b92915050565b60008060408385031215612a9757612a966125aa565b5b6000612aa585828601612a6b565b9250506020612ab6858286016127f7565b9150509250929050565b600060208284031215612ad657612ad56125aa565b5b6000612ae4848285016127f7565b91505092915050565b600081519050919050565b600082825260208201905092915050565b6000819050602082019050919050565b612b2281612721565b82525050565b6000612b348383612b19565b60208301905092915050565b6000602082019050919050565b6000612b5882612aed565b612b628185612af8565b9350612b6d83612b09565b8060005b83811015612b9e578151612b858882612b28565b9750612b9083612b40565b925050600181019050612b71565b5085935050505092915050565b60006020820190508181036000830152612bc58184612b4d565b905092915050565b612bd681612639565b8114612be157600080fd5b50565b600081359050612bf381612bcd565b92915050565b600060208284031215612c0f57612c0e6125aa565b5b6000612c1d84828501612be4565b91505092915050565b60008060408385031215612c3d57612c3c6125aa565b5b6000612c4b858286016127f7565b9250506020612c5c85828601612be4565b9150509250929050565b600067ffffffffffffffff821115612c8157612c80612856565b5b612c8a826126b5565b9050602081019050919050565b6000612caa612ca584612c66565b6128b6565b905082815260208101848484011115612cc657612cc5612851565b5b612cd1848285612902565b509392505050565b600082601f830112612cee57612ced61284c565b5b8135612cfe848260208601612c97565b91505092915050565b60008060008060808587031215612d2157612d206125aa565b5b6000612d2f878288016127f7565b9450506020612d40878288016127f7565b9350506040612d5187828801612742565b925050606085013567ffffffffffffffff811115612d7257612d716125af565b5b612d7e87828801612cd9565b91505092959194509250565b60008060408385031215612da157612da06125aa565b5b6000612daf858286016127f7565b9250506020612dc0858286016127f7565b9150509250929050565b7f4e487b7100000000000000000000000000000000000000000000000000000000600052602260045260246000fd5b60006002820490506001821680612e1157607f821691505b602082108103612e2457612e23612dca565b5b50919050565b7f4552433732313a20617070726f76616c20746f2063757272656e74206f776e6560008201527f7200000000000000000000000000000000000000000000000000000000000000602082015250565b6000612e8660218361267a565b9150612e9182612e2a565b604082019050919050565b60006020820190508181036000830152612eb581612e79565b9050919050565b7f4552433732313a20617070726f76652063616c6c6572206973206e6f7420746f60008201527f6b656e206f776e6572206e6f7220617070726f76656420666f7220616c6c0000602082015250565b6000612f18603e8361267a565b9150612f2382612ebc565b604082019050919050565b60006020820190508181036000830152612f4781612f0b565b9050919050565b60008190508160005260206000209050919050565b60006020601f8301049050919050565b600082821b905092915050565b600060088302612fb07fffffffffffffffffffffffffffffffffffffffffffffffffffffffffffffffff82612f73565b612fba8683612f73565b95508019841693508086168417925050509392505050565b6000819050919050565b6000612ff7612ff2612fed84612721565b612fd2565b612721565b9050919050565b6000819050919050565b61301183612fdc565b61302561301d82612ffe565b848454612f80565b825550505050565b600090565b61303a61302d565b613045818484613008565b505050565b5b818110156130695761305e600082613032565b60018101905061304b565b5050565b601f8211156130ae5761307f81612f4e565b61308884612f63565b81016020851015613097578190505b6130ab6130a385612f63565b83018261304a565b50505b505050565b600082821c905092915050565b60006130d1600019846008026130b3565b1980831691505092915050565b60006130ea83836130c0565b9150826002028217905092915050565b6131038261266f565b67ffffffffffffffff81111561311c5761311b612856565b5b6131268254612df9565b61313182828561306d565b600060209050601f8311600181146131645760008415613152578287015190505b61315c85826130de565b8655506131c4565b601f19841661317286612f4e565b60005b8281101561319a57848901518255600182019150602085019450602081019050613175565b868310156131b757848901516131b3601f8916826130c0565b8355505b6001600288020188555050505b505050505050565b7f4552433732313a2063616c6c6572206973206e6f7420746f6b656e206f776e6560008201527f72206e6f7220617070726f766564000000000000000000000000000000000000602082015250565b6000613228602e8361267a565b9150613233826131cc565b604082019050919050565b600060208201905081810360008301526132578161321b565b9050919050565b7f496e76616c6964206d696e7420616d6f756e7421000000000000000000000000600082015250565b600061329460148361267a565b915061329f8261325e565b602082019050919050565b600060208201905081810360008301526132c381613287565b9050919050565b7f4e487b7100000000000000000000000000000000000000000000000000000000600052601160045260246000fd5b600061330482612721565b915061330f83612721565b9250828201905080821115613327576133266132ca565b5b92915050565b7f4d617820737570706c792068617320616c7265616479206265656e207265616360008201527f6865642100000000000000000000000000000000000000000000000000000000602082015250565b600061338960248361267a565b91506133948261332d565b604082019050919050565b600060208201905081810360008301526133b88161337c565b9050919050565b7f4d696e74696e67206973206e6f74206c69766520796574210000000000000000600082015250565b60006133f560188361267a565b9150613400826133bf565b602082019050919050565b60006020820190508181036000830152613424816133e8565b9050919050565b600061343682612721565b915061344183612721565b925082820261344f81612721565b91508282048414831517613466576134656132ca565b5b5092915050565b7f496e73756666696369656e742066756e64732100000000000000000000000000600082015250565b60006134a360138361267a565b91506134ae8261346d565b602082019050919050565b600060208201905081810360008301526134d281613496565b9050919050565b600081905092915050565b50565b60006134f46000836134d9565b91506134ff826134e4565b600082019050919050565b6000613515826134e7565b9150819050919050565b7f4e487b7100000000000000000000000000000000000000000000000000000000600052603260045260246000fd5b600061355982612721565b91507fffffffffffffffffffffffffffffffffffffffffffffffffffffffffffffffff820361358b5761358a6132ca565b5b600182019050919050565b7f4552433732313a20696e76616c696420746f6b656e2049440000000000000000600082015250565b60006135cc60188361267a565b91506135d782613596565b602082019050919050565b600060208201905081810360008301526135fb816135bf565b9050919050565b7f4552433732313a2061646472657373207a65726f206973206e6f74206120766160008201527f6c6964206f776e65720000000000000000000000000000000000000000000000602082015250565b600061365e60298361267a565b915061366982613602565b604082019050919050565b6000602082019050818103600083015261368d81613651565b9050919050565b7f4552433732314d657461646174613a2055524920717565727920666f7272206e60008201527f6f6e6578697374656e7420746f6b656e00000000000000000000000000000000602082015250565b60006136f060308361267a565b91506136fb82613694565b604082019050919050565b6000602082019050818103600083015261371f816136e3565b9050919050565b600081905092915050565b600061373c8261266f565b6137468185613726565b935061375681856020860161268b565b80840191505092915050565b6000815461376f81612df9565b6137798186613726565b9450600182166000811461379457600181146137a9576137dc565b60ff19831686528115158202860193506137dc565b6137b285612f4e565b60005b838110156137d4578154818901526001820191506020810190506137b5565b838801955050505b50505092915050565b60006137f18286613731565b91506137fd8285613731565b91506138098284613762565b9150819050949350505050565b7f4f776e61626c653a206e6577206f776e657220697320746865207a65726f206160008201527f6464726573730000000000000000000000000000000000000000000000000000602082015250565b600061387260268361267a565b915061387d82613816565b604082019050919050565b600060208201905081810360008301526138a181613865565b9050919050565b7f4f776e61626c653a2063616c6c6572206973206e6f7420746865206f776e6572600082015250565b60006138de60208361267a565b91506138e9826138a8565b602082019050919050565b6000602082019050818103600083015261390d816138d1565b9050919050565b7f4552433732313a207472616e736665722066726f6d20696e636f72726563742060008201527f6f776e6572000000000000000000000000000000000000000000000000000000602082015250565b600061397060258361267a565b915061397b82613914565b604082019050919050565b6000602082019050818103600083015261399f81613963565b9050919050565b7f4552433732313a207472616e7366657220746f20746865207a65726f2061646460008201527f7265737300000000000000000000000000000000000000000000000000000000602082015250565b6000613a0260248361267a565b9150613a0d826139a6565b604082019050919050565b60006020820190508181036000830152613a31816139f5565b9050919050565b6000613a4382612721565b9150613a4e83612721565b9250828203905081811115613a6657613a656132ca565b5b92915050565b7f4552433732313a20617070726f766520746f2063616c6c657200000000000000600082015250565b6000613aa260198361267a565b9150613aad82613a6c565b602082019050919050565b60006020820190508181036000830152613ad181613a95565b9050919050565b7f4552433732313a207472616e7366657220746f206e6f6e20455243373231526560008201527f63656976657220696d706c656d656e7465720000000000000000000000000000602082015250565b6000613b3460328361267a565b9150613b3f82613ad8565b604082019050919050565b60006020820190508181036000830152613b6381613b27565b9050919050565b7f4e487b7100000000000000000000000000000000000000000000000000000000600052601260045260246000fd5b6000613ba482612721565b9150613baf83612721565b925082613bbf57613bbe613b6a565b5b828204905092915050565b6000613bd582612721565b9150613be083612721565b925082613bf057613bef613b6a565b5b828206905092915050565b600081519050919050565b600082825260208201905092915050565b6000613c2282613bfb565b613c2c8185613c06565b9350613c3c81856020860161268b565b613c45816126b5565b840191505092915050565b6000608082019050613c6560008301876127b6565b613c7260208301866127b6565b613c7f60408301856129ca565b8181036060830152613c918184613c17565b905095945050505050565b600081519050613cab816125e0565b92915050565b600060208284031215613cc757613cc66125aa565b5b6000613cd584828501613c9c565b91505092915050565b7f4552433732313a206d696e7420746f20746865207a65726f2061646472657373600082015250565b6000613d1460208361267a565b9150613d1f82613cde565b602082019050919050565b60006020820190508181036000830152613d4381613d07565b9050919050565b7f4552433732313a20746f6b656e20616c7265616479206d696e74656400000000600082015250565b6000613d80601c8361267a565b9150613d8b82613d4a565b602082019050919050565b60006020820190508181036000830152613daf81613d73565b905091905056fea264697066735822122080bc059cd0e75abfacd1fb1f1c4ddbd78827ff1b7dac013bf4c46c18689baee464736f6c63430008110033",
  "linkReferences": {},
  "deployedLinkReferences": {}
}